:020000040800F2
:1000000000040020A1010008A9010008AB010008BC
:10001000AD010008AF010008B101000800000000B8
:10002000000000000000000000000000B301000814
:10003000B501000800000000B7010008B901000880
:10004000BB010008BB010008BB010008BB010008A0
:10005000BB010008BB010008BB010008BB01000890
:10006000BB010008BB010008BB010008BB01000880
:10007000BB010008BB010008BB010008BB01000870
:10008000BB010008BB010008BB010008BB01000860
:10009000BB010008BB010008BB010008BB01000850
:1000A000BB010008BB010008BB010008BB01000840
:1000B000BB010008BB010008BB010008BB01000830
:1000C000BB010008BB010008BB010008BB01000820
:1000D000BB010008BB010008BB010008BB01000810
:1000E000BB010008BB010008BB010008BB01000800
:1000F000BB010008BB010008BB010008BB010008F0
:10010000BB010008BB010008BB010008BB010008DF
:10011000BB010008BB010008BB010008BB010008CF
:10012000BB010008BB010008BB010008BB010008BF
:10013000BB010008BB010008BB010008BB010008AF
:10014000BB010008BB010008BB010008BB0100089F
:10015000BB010008BB010008BB010008BB0100088F
:10016000BB010008BB010008BB010008BB0100087F
:10017000BB010008BB010008BB010008BB0100086F
:10018000BB010008BB010008DFF810D000F01AF82E
:100190000048004709020008AFF300800004002077
:1001A0000648804706480047FEE7FEE7FEE7FEE711
:1001B000FEE7FEE7FEE7FEE7FEE7FEE7E9010008EF
:1001C00089010008064C074D06E0E06840F0010395
:1001D00094E8070098471034AC42F6D3FFF7D8FFF5
:1001E0004003000850030008704702E008C8121FCF
:1001F00008C1002AFAD170477047002001E001C110
:10020000121F002AFBD170474B48006840F02000C5
:10021000494908604948006820F44050474908604F
:100220000846006840F480500860081D006820F00F
:100230004000091D0860084600680860081D006845
:1002400020F44050091D0860084600680860081D39
:10025000006820F44050091D08600846006840F41A
:100260008050086035481830006840F480003349F9
:10027000183108603148006820F440402F49086078
:100280000846006840F480400860081D006820F0BF
:100290008000091D0860084600680860081D0068A5
:1002A00020F44040091D0860084600680860081DE9
:1002B000006820F44040091D08600846006840F4CA
:1002C000804008601D481830006840F400001B4959
:1002D000183108601948006820F440301749086058
:1002E0000846006840F480300860081D006820F46B
:1002F0008070091D0860084600680860081D0068D5
:1003000020F44030091D0860084600680860081D98
:10031000006820F44030091D08600846006840F479
:100320008030086005481830006840F0807003494C
:100330001831086000BFFEE7303802400014024068
:10034000500300080000002000040000FA0100082B
:040000050800018965
:00000001FF
