:020000040800F2
:1000000000040020A1010008AF0200086D020008F2
:10001000AD020008E9010008FD030008000000002F
:10002000000000000000000000000000E3020008E3
:10003000EB01000800000000B10200089D03000869
:10004000BB010008BB010008BB010008BB010008A0
:10005000BB010008BB010008BB010008BB01000890
:10006000BB010008BB010008BB010008BB01000880
:10007000BB010008BB010008BB010008BB01000870
:10008000BB010008BB010008BB010008BB01000860
:10009000BB010008BB010008BB010008BB01000850
:1000A000BB010008BB010008BB010008BB01000840
:1000B000BB010008BB010008BB010008BB01000830
:1000C000BB010008BB010008BB010008BB01000820
:1000D000BB010008BB010008BB010008BB01000810
:1000E000BB010008BB010008BB010008BB01000800
:1000F000BB010008BB010008BB010008BB010008F0
:10010000BB010008BB010008BB010008BB010008DF
:10011000BB010008BB010008BB010008BB010008CF
:10012000BB010008BB010008BB010008BB010008BF
:10013000BB010008BB010008BB010008BB010008AF
:10014000BB010008BB010008BB010008BB0100089F
:10015000BB010008BB010008BB010008BB0100088F
:10016000BB010008BB010008BB010008BB0100087F
:10017000BB010008BB010008BB010008BB0100086F
:10018000BB010008BB010008DFF810D000F01AF82E
:10019000004800471D040008AFF300800004002061
:1001A0000648804706480047FEE7FEE7FEE7FEE711
:1001B000FEE7FEE7FEE7FEE7FEE7FEE7A103000835
:1001C00089010008064C074D06E0E06840F0010395
:1001D00094E8070098471034AC42F6D3FFF7D8FFF5
:1001E0004804000858040008FEE770472DE9F04174
:1001F000002201274FF0030C07FA02F50B682B4091
:10020000AB422CD1066853000CFA03F4A6430660F7
:100210000E79D0F800809E4046EA080606600E7906
:10022000012E01D0022E12D18668A64386604E7937
:10023000D0F808809E4046EA080686604668AE43CD
:10024000466045688E799640B6B235434560C568CC
:10025000A543C560CC799C40C3681C43C460521C54
:10026000102AC9D3BDE8F08101837047FEE7000082
:100270001CB50121202000F01DF840200090012035
:100280008DF8040000218DF806108DF8070002207B
:100290008DF80500044C69462046FFF7A7FF402172
:1002A0002046FFF7E1FF1CBD00140240FEE7704747
:1002B00070470000054A002903D01168014311600E
:1002C0007047116881431160704700003038024068
:1002D00001B502E00098401E009000980028F9D176
:1002E00008BD70470CB500220192009227490868AA
:1002F00040F4803008604FF4A043086800F40030F8
:1003000000900198401C0190009810B90198984203
:10031000F3D10868800302D50120009000E000922C
:100320000098012831D119484030026842F08052CB
:1003300002601748026842F44042026013480830E5
:1003400002680260026842F400420260026842F4FD
:10035000A0520260021F0F4B13600A6842F08072C5
:100360000A600A689201FCD50B4A40F205711160DF
:10037000016821F003010160016841F002010160A0
:100380000168C1F381010229FAD10CBD0038024095
:100390000070004019544007003C024070470000C4
:1003A00010B51248016841F47001016010480168FD
:1003B00041F0010101600E4A00210832116002681B
:1003C0000C4B1A400260031D0B4A1A60026822F4AB
:1003D0008022026006480C300160FFF783FF03496A
:1003E0004FF000608039086010BD000088ED00E02B
:1003F00000380240FFFFF6FE10300024FEE702E066
:1004000008C8121F08C1002AFAD17047704700209F
:1004100001E001C1121F002AFBD17047FFF728FF3E
:1004200000220749074D0124C1F898222846FFF70A
:100430004FFFC1F898422846FFF74AFFF4E7000053
:1004400000804242FFFF0F00580400080000002017
:08045000000400000E04000886
:040000050800018965
:00000001FF
